:020000040800F2
:10000000FCFF002095080008E5080008E508000846
:10001000E5080008E5080008E50800080000000001
:10002000000000000000000000000000E5080008DB
:10003000E508000800000000E50800088129000824
:10004000E5080008E5080008E5080008E5080008DC
:10005000E5080008E5080008E5080008E5080008CC
:10006000E5080008E5080008E5080008E5080008BC
:10007000E5080008E5080008E5080008E5080008AC
:10008000E5080008E5080008E50800080000000091
:10009000000000000000000000000000E50800086B
:1000A000E5080008E5080008E5080008E50800087C
:1000B000E5080008E5080008E5080008E50800086C
:1000C000E5080008E5080008E5080008E50800085C
:1000D000E5080008E5080008E50800080000000041
:1000E000E5080008E5080008E50800080000000031
:1000F000000000000000000000000000E50800080B
:1001000000000000E5080008E5080008E508000810
:1001100000000000000000000000000000000000DF
:10012000E5080008E5080008E5080008E5080008FB
:10013000E5080008000000000000000000000000CA
:100140000000000000000000000000002122000864
:10015000E5080008E5080008E5080008E5080008CB
:10016000E5080008E50800080000000000000000A5
:10017000000000000000000000000000000000007F
:1001800000000000E508000800000000000000007A
:04019000E508000876
:1001C00070B50D4E0D4D761BB61006D000240134CF
:1001D00055F8043B9847A642F9D1094E094D761BC4
:1001E00002F01CF8B61006D00024013455F8043B88
:1001F0009847A642F9D170BDF03A0008F03A0008DD
:10020000F03A0008F03A0008844641EA000313F08F
:1002100003036DD1403A41D351F8043B40F8043B0D
:1002200051F8043B40F8043B51F8043B40F8043BD0
:1002300051F8043B40F8043B51F8043B40F8043BC0
:1002400051F8043B40F8043B51F8043B40F8043BB0
:1002500051F8043B40F8043B51F8043B40F8043BA0
:1002600051F8043B40F8043B51F8043B40F8043B90
:1002700051F8043B40F8043B51F8043B40F8043B80
:1002800051F8043B40F8043B51F8043B40F8043B70
:1002900051F8043B40F8043B403ABDD2303211D310
:1002A00051F8043B40F8043B51F8043B40F8043B50
:1002B00051F8043B40F8043B51F8043B40F8043B40
:1002C000103AEDD20C3205D351F8043B40F8043B10
:1002D000043AF9D2043208D0D2071CBF11F8013B0E
:1002E00000F8013B01D30B8803806046704700BFD4
:1002F000082A13D38B078DD010F003038AD0C3F1E3
:100300000403D21ADB071CBF11F8013B00F8013BC4
:1003100080D331F8023B20F8023B7BE7043AD9D383
:10032000013A11F8013B00F8013BF9D20B78037058
:100330004B7843708B788370604670478842F0B486
:100340000DD98B1883420AD9841832B1224613F88A
:10035000014D02F8014D9942F9D1F0BC70470F2AC6
:100360000ED80346541E002AF7D001340C44013B3A
:1003700011F8012B03F8012FA142F9D1F0BC70470D
:1003800040EA01039B073BD1A2F110073F0901F1AD
:10039000200606EB071601F1100300F1100453F8D4
:1003A000105C44F8105C53F80C5C44F80C5C53F897
:1003B000085C44F8085C53F8045C44F8045C1033AF
:1003C000B34204F11004EAD17B1C1B0112F00C0FA4
:1003D000194402F00F05034415D0043DAD0803EBAA
:1003E000850C1C1F0E4656F8047B44F8047F6445B8
:1003F000F9D10135AD002B44294402F00302B1E7E5
:10040000541E0346B1E72A46ACE700BFF0B48607A6
:1004100046D0541E002A3CD0CAB2034602E014F172
:10042000FF3436D303F8012B9D07F8D1032C29D9CB
:10043000CDB245EA05250F2C45EA054533D9A4F18F
:100440001006360903F1200707EB061703F1100227
:1004500042E9045542E902551032BA42F8D1721C01
:1004600014F00C0F03EB021204F00F0613D0331F2D
:1004700023F003030433134442F8045B9342FBD19B
:1004800006F003042CB1C9B21C4403F8011B9C42C2
:10049000FBD1F0BC704734461346002CF3D1F8E78B
:1004A00014460346C2E71A462646E0E7000000006D
:1004B000000000000000000000000000000000003C
:1004C00090F800F06DE9024520F007016FF0000C94
:1004D00010F0070491F820F040F049804FF000043C
:1004E0006FF00700D1E9002391F840F000F1080017
:1004F00082FA4CF2A4FA8CF283FA4CF3A2FA8CF34F
:100500004BBBD1E9022382FA4CF200F10800A4FAB5
:100510008CF283FA4CF3A2FA8CF3E3B9D1E9042309
:1005200082FA4CF200F10800A4FA8CF283FA4CF340
:10053000A2FA8CF37BB9D1E9062301F1200182FAFA
:100540004CF200F10800A4FA8CF283FA4CF3A2FA00
:100550008CF3002BC6D0002A04BF04301A4612BA0E
:10056000B2FA82F2FDE8024500EBD2007047D1E911
:10057000002304F00305C4F100004FEAC50514F0A0
:10058000040F91F840F00CFA05F562EA05021CBF71
:1005900063EA050362464FF00004A9E753B94AB97C
:1005A000002908BF00281CBF4FF0FF314FF0FF307B
:1005B00000F06EB9ADF1080C6DE904CE00F006F85C
:1005C000DDF804E0DDE9022304B070472DE9F047CF
:1005D000089D04468C46002B40F083808A421746D3
:1005E00047D9B2FA82F242B1C2F1200024FA00F0F7
:1005F0009140974040EA010C94404FEA1748230C81
:10060000BCFBF8F61FFA87FE08FB16C143EA01435C
:1006100006FB0EF1994209D9FB1806F1FF3080F074
:100620001981994240F21681023E3B445B1AA4B202
:10063000B3FBF8F008FB103344EA034400FB0EFE62
:10064000A64509D93C1900F1FF3380F00581A64584
:1006500040F2028102383C4440EA0640A4EB0E041A
:1006600000261DB1D4400023C5E900433146BDE852
:10067000F08702B9FFDEB2FA82F2002A50D1CB1B1A
:100680004FEA174E1FFA87F80126B3FBFEFC210C38
:100690000EFB1C3341EA034108FB0CF38B4207D9E4
:1006A00079180CF1FF3002D28B4200F2E9808446C7
:1006B000C91AA3B2B1FBFEF00EFB101143EA0144CC
:1006C00008FB00F8A04507D93C1900F1FF3302D21E
:1006D000A04500F2D9801846A4EB080440EA0C407B
:1006E000BFE78B4209D9002D00F0B1800026C5E993
:1006F000000130463146BDE8F087B3FA83F6002E9C
:100700004AD18B4202D3824200F2B880841A61EB54
:10071000030101208C46002DA8D0C5E9004CA5E7B7
:10072000C2F1200320FA03F6974001FA02F04FEAE3
:10073000174ED9403043030CB1FBFEF61FFA87F881
:100740000EFB161143EA014306FB08F1994204FA35
:1007500002F409D9FB1806F1FF3C80F08D80994224
:1007600040F28A80023E3B445B1A81B2B3FBFEF04A
:100770000EFB103341EA034100FB08F38B4207D91B
:10078000791800F1FF3C73D28B4271D90238394499
:10079000CB1A40EA064678E7C6F1200C03FA06F4C5
:1007A00022FA0CF31C4320FA0CF701FA06F34FEA85
:1007B000144E21FA0CF11F433B0CB1FBFEF91FFA5A
:1007C00084F80EFB191143EA014109FB08FA8A4536
:1007D00002FA06F200FA06F308D9611809F1FF30AF
:1007E00048D28A4546D9A9F102092144A1EB0A0160
:1007F000BFB2B1FBFEF00EFB101147EA014700FB50
:1008000008F8B84507D9E71900F1FF312ED2B845ED
:100810002CD90238274440EA0940A7EB0807A0FB7F
:1008200002894F45C64649461AD317D05DB1B3EB8E
:100830000E0267EB010707FA0CFCF2404CEA0202D9
:10084000F740C5E9002700263146BDE8F0872E466F
:1008500028460BE70646E9E61846FDE64345E5D29D
:10086000B8EB020E69EB04010138DFE70846D2E776
:1008700060468DE78146B9E7664675E730464AE748
:10088000ACF1020C394413E702383C4424E700BFC2
:10089000704700BFDFF834D0002103E00C4B5B58F9
:1008A000435004310B480C4B42189A42F6D30B4A82
:1008B00002E0002342F8043B094B9A42F9D301F0CD
:1008C0009FFCFFF77DFC02F089F87047FCFF0020D9
:1008D000F03A000800000020FC000020FC0000208E
:1008E000701C0020FEE7000000F07F014B01C209F0
:1008F00003F1A04331D003F5106019B1D3F80029FA
:10090000002A13DBD3F8002942F00262C3F8002961
:100910004FF0A0431A6942EA811119611A6942F045
:1009200020021A611A699106FCD47047D3F8002995
:1009300042F00062C3F8002982685206FCD5D3F861
:10094000002942F0804242F40012C3F80029836873
:100950009B07FCD502238360DAE703F5306019B109
:10096000D3F8002B002A06DBD3F8002B42F4001248
:10097000C3F8002B70470E494A6842F400724A607F
:100980004FF0A0414A691206FCD5D3F8002B42F083
:10099000804242F40012C3F8002B83689B07FCD509
:1009A000034A02238360536843F4806353607047B3
:1009B0000008005030B560B9374B384D03EB0113D8
:1009C00035F811405B89A34228BF2346E41A25F875
:1009D0001140440101294FEAC24204F1A0412CD147
:1009E0001A43C1F81029D1F8002942F00442C1F895
:1009F0000029D1F8002902F44022B2F5802F13D14A
:100A0000254A02EB4012127F012A0DD1244A946834
:100A1000D1F8002914F4807F14BF4FF080544FF0B8
:100A200000542243C1F8002933B11D4A0123516B00
:100A300003FA00F00843506330BDD1F8104B04F0C6
:100A40006044C1F8104BD1F8104B22431343C1F856
:100A5000103BD1F8003B43F00443C1F8003BD1F810
:100A6000003B03F44023B3F5802FE5D10A4B03EBA1
:100A70004010037B012BDFD1094B9A68D1F8003B72
:100A800012F4807F14BF4FF080524FF00052134396
:100A9000C1F8003BD0E700BFF01B0020AE1B0020D8
:100AA00000080050F8B5054600F07F004400124EE3
:100AB000134604EBD51214010F4606EB0212375110
:100AC0000024E9095460138138B90C4A22F8113026
:100AD0000122FFF76FFF0120F8BD5589B3FBF5F444
:100AE000A2B205FB143414F0FF0F01D1002BF0D19A
:100AF000013292B2EDE700BFF01B0020AE1B0020D8
:100B000070B52B4B2B490022DA612B4A0E68144634
:100B1000D568ED0344D4D168C90744BF0121D16031
:100B2000E06810F4F97042D0E268D60605D5DA69BB
:100B300042F01002DA611022E2601F4AD1688D068D
:100B400005D5D96941F00801D9612021D160D1686A
:100B50004C0605D5D96941F00401D9614021D16025
:100B6000154AD168080605D5D96941F00201D96155
:100B70008021D160D168C90506D5D96941F001014C
:100B8000D9614FF48071D1600B49CA68920705D5CD
:100B9000DA6942F02002DA610223CB60012006E02C
:100BA000451CB5D00D68AD1B8542B1D9032070BD81
:100BB000CC1B0020EC1B0020003C02402DE9F74F2D
:100BC000DFF884C15E4ADFF8849100234FF001080A
:100BD0000D6808FA03F404EA0506AC4340F0A0806F
:100BE0004D6825F010055F004FF0030E013D0EFA31
:100BF00007FE012D6FEA0E0E0FD88468CD6804EA57
:100C00000E04BD40254385604D684468C5F300155A
:100C100024EA06049D4025434560C4688D6804EAC3
:100C20000E04BD402543C5604C6824F01004022C1E
:100C300014D14FEAD30A00EB8A0A03F0070BDAF863
:100C400020504FEA8B0B0F2404FA0BF425EA04041E
:100C50000D6905FA0BF52543CAF82050046804EA2B
:100C60000E0E4C6804F00304BC4044EA0E04046019
:100C70004C68E50054D54FF0000BCDF804B0DCF81B
:100C80004450304C45F48045CCF84450DCF8445096
:100C900005F480450195019D23F0030505F180458C
:100CA00005F59C3503F0030ED5F808A04FEA8E0E2B
:100CB0000F2707FA0EF7A0422AEA070737D004F5F4
:100CC0008064A04235D004F58064A04233D048450A
:100CD00033D004F50064A0420CBF0424072404FAB6
:100CE0000EF43C43AC604C681768F543E40354BF12
:100CF0002F40374317604C685768A40354BF2F40F8
:100D0000374357604C689768E40254BF2F4037431D
:100D100097604C68D768A40254BF2F403743D76010
:100D20000133102B7FF454AF03B0BDE8F08F5C4665
:100D3000D5E70124D3E70224D1E70324CFE700BF9E
:100D4000003C01400000024000380240000C02401C
:100D5000024A136823F001031360704710E000E0BB
:100D60000A4B4FF47A721B68B3FBF2F35843013815
:100D7000B0F1807F09D2064B064A5860F02182F814
:100D8000231000229A6007221A607047000000209A
:100D900010E000E000ED00E0034B1B68DB0700D52E
:100DA00000BE0020704700BFF0ED00E00B68024974
:100DB0000B610021184700BF08010020084610B54C
:100DC0000C46FFF791FD0A4B04F07F0003EB400354
:100DD00003EBD41191F8253043F0020381F825305C
:100DE00091F8253043F0010381F8253010BD00BF94
:100DF00088120020084610B5124C11461A4600F021
:100E00007F0304EB430404EBD01420346379DB0745
:100E100003D5BDE81040FFF7BFBF637943F001037E
:100E20006371FFF73FFE60B9637960F3000363719C
:100E3000637960F382036371034B1B68DB0700D5A2
:100E400000BE10BD88120020F0ED00E038B5174B51
:100E5000174C0546A3B1607BAFF3008080B9A3684F
:100E6000A362012384F82C3042F2077384F83E0019
:100E700094F82F10A3872846BDE83840FFF79EBF9F
:100E8000A26BA36894F82F109B1AB3F5805F28BF5C
:100E90004FF48053074A9BB22846FFF7ABFF20B9B7
:100EA000054B1B68DB0700D500BE38BD0000000005
:100EB000F8110020F8010020F0ED00E070B5134AB1
:100EC000957856788D420BD08E4217D1104A0AB9C8
:100ED000012070BD0F49DAB20020AFF30080F7E7C0
:100EE000AE42F3D040234832FFF784FF0028EFD111
:100EF000094B1B68DA0706D500BEEAE7064B1B68FC
:100F0000DB0700D500BE0020E3E700BF640100203E
:100F1000000000006C010020F0ED00E030B40A4C4D
:100F200005460A4608684968234603C30023C4E906
:100F3000023392F900209A4228461A4630BCACBFD0
:100F400080211946FFF756BF080100202DE9F04F18
:100F500085B0002401920E9A02920F9A0392834A5E
:100F6000DFF818E21088A4464FF0A048019A6245C5
:100F700004DC0CB17D4B188001200CE04A78052A76
:100F80000CD00CB1794B1880794B186810F0010027
:100F900001D000BE002005B0BDE8F08FCA7802F095
:100FA00003029A42EDD1022B17D0032B00F0908060
:100FB000012B40F0D4809EF80220022A40F2FF323A
:100FC0000CBF4FF4806717464D790A7905F0070585
:100FD00042EA0522BA421CDD0CE04A790D7902F0A2
:100FE000070245EA02229EF80250022D0FD1B2F507
:100FF000007F0ED00CB15D4B18805D4B1B68DB078A
:1010000000D500BE05B0BDE8F04FFFF7C5BE402AD1
:10101000F0D88F7817F07C0FECD107F07F0291F8B1
:1010200005A0544E91F80490550005EBD71506EB3A
:1010300005150AF0070A49EA0A29A5F80A9091F865
:10104000069085F80C9091F805900D7909F0070944
:1010500045EA09250335FE094FEAA5094FEA95053A
:101060003ED1D8F824706D001735AF4205D22F1845
:10107000B7F5A07FBEDCC8F8245091F805A091F820
:1010800003900D79570107F1A0470AF0070A09F00C
:10109000030945EA0A25D7F800BB45EA894545F426
:1010A000004545EA0B05C7F8005B334F1032FD6978
:1010B000012606FA02F22A43FA618A78D50914BF9A
:1010C000039D029D2A700A780CF1010C11444DE732
:1010D0009EF80220022A0CBF4FF48067402773E776
:1010E000D8F824A000EB09075744B7F5A07F81D8B2
:1010F0002844940080B204F1A044C0F5A07545EAEC
:101100000945C4F8005191F803901B4E570109F0AE
:10111000030407F1A04791F80590D7F800B99505A9
:10112000012C45EA84450C7909F0070944EA0924B1
:1011300045F4004544EA0B0444EA050414BF4FF0AB
:10114000805A4FF0000A44EA0A04C7F80049F469DB
:10115000012505FA02F22243F2612C46ADE7002C8C
:101160003FF450AF014B18804CE700BFFC0000205B
:10117000F0ED00E0F01B0020000800508812002075
:1011800073B54B79082B054602D0002002B070BD24
:101190008B79062BF9D1CB79502BF6D1162A05D8AD
:1011A000154B1B68D907F0D500BEEEE7134C8B78C2
:1011B00084F82D3004F12E030E78019304F12F03EF
:1011C000009302231A463144FFF7C0FE28B90A4BA8
:1011D0001B68DA07D9D500BED8E794F82F101F2373
:1011E00022462846FFF706FE20B9034B1B68DB07A3
:1011F00000D500BE1720C9E7F0ED00E0F81100208F
:101200002DE9F3414B79032B06460D4604D000240B
:10121000204602B0BDE8F0810C79C4EBC40412345E
:10122000A4B2A24205D2214B1B68DA07EFD500BE5B
:10123000EDE71F4A92F801E01746BEF1000FF2D128
:1012400091F800C06144C2F8881091F80180B8F1AB
:10125000210FE8D115F80CC002F1010E0232009204
:10126000CDF804E02A796144FFF770FE0028DAD057
:10127000AB79B978012B04BFEB79FB7001233B718B
:10128000AB783B70D7F88830B3F80730FB80002983
:10129000BED0084A40233046FFF7ACFD0028B7D146
:1012A000024B1B68DB07B3D500BEB1E7F0ED00E0F1
:1012B00064010020AC0100200B4B63B10B4B1B7889
:1012C000834206D90A4B1B6800EB400003EBC000C9
:1012D0007047C01AC0B2012803D8064B00EB40008B
:1012E000F4E70020704700BF000000000401002068
:1012F000000100200039000808B5064B0122052036
:101300001A60FFF72DFD044A044B1188927819806A
:101310009A7008BDF401002050380008F001002048
:10132000024840220021FFF771B800BFF8110020E9
:10133000024840220021FFF769B800BFF8110020E1
:1013400002488C220021FFF761B800BF6401002031
:101350000020FFF7F5BF000070B5372200210546D9
:101360001048114EFFF752F81022FF210F48FFF7E7
:101370004DF81222FF210E48FFF748F80D481422BD
:101380000021FFF743F800242046FFF795FF43684C
:101390002846984733780134E4B20133A342F3DAA4
:1013A00070BD00BF88120020040100208B120020B5
:1013B0009B1200200801002037B514490446CA8951
:1013C000888991F90050831A9BB2402B28BF402393
:1013D000002D10DA904214D01A4689680C48019307
:1013E000FEF712FF0A4A019B8021204603B0BDE8A8
:1013F0003040FFF7FFBC90424FF0000103D10022C4
:10140000F3E78021FBE7024AEFE700BF0801002075
:1014100048120020F8B5194E0C4605460868496880
:10142000B260374603C70021F181E1888B4228BFB3
:101430000B46B381E18879B143B13AB9104B1B68CF
:10144000DA0701D40020F8BD00BEFBE72846FFF70D
:10145000B3FF68B10120F6E794F90030002B0A468B
:101460000B462846ACBF80210021FFF7C3FCF0E704
:10147000034B1B68DB07E5D500BEE4E7080100204D
:10148000F0ED00E037B50546144661B9127802F078
:101490006002202A22D16278FE2A07D0FF2A1DD1BD
:1014A0002146FFF73BFD012003B030BD01238DF83D
:1014B00007300B4B1BB1AFF300808DF807009DF890
:1014C00007000028F0D0431E8DF807300DF1070209
:1014D000012321462846FFF79DFFE4E70846E3E79E
:1014E000000000002DE9F0411446127802F01F07B9
:1014F000012F05460B4601D000202BE04049A6886D
:1015000091F800C0F6B2B4450E46F5D112F0600273
:101510001ED0202AF0D16278013A0A2AECD801A123
:1015200051F822F08B150008CF150008D9150008D6
:10153000F9140008F9140008F9140008F914000857
:10154000F91400089B150008AD150008E315000804
:1015500013B10120BDE8F0816378062BCCD16388FC
:101560001B0A212B09D1D1F88820002AC4D021469A
:101570001378BDE8F041FFF74DBF222BBCD1214AC3
:10158000CB882146FFF746FFE3E7002BE1D11E4A57
:101590001268D307B0D500BEAEE7002BD9D1E388DF
:1015A000402BA9D8194A21462846EBE7002BD0D179
:1015B0006188174A090A717122B11846AFF3008099
:1015C000002899D021462846FFF7A8FCC1E7002B48
:1015D000BFD1104A0123E6E7002BBAD10E4A0123FE
:1015E000E1E7002BEED0022BB3D161880B4BC9B2DF
:1015F0003171002BADD00020AFF30080A9E700BF10
:101600006401002082390008F0ED00E0AC01002008
:1016100000000000690100206801002000000000B7
:1016200070B50446164652B90378012B07D1214BF9
:101630000822C3F88820BFF34F8FBFF36F8F658AEE
:10164000A28AADB292B29542A5EB020338BFE289FD
:101650009BB238BF9B1A228938BF9BB29A4225D1D0
:10166000237B1BBBF6B916E09B1A9BB29342FBD2BD
:101670006289606802FB0300FEF7C6FD6B1C9BB22B
:101680009D4202D8228A9A4202D2E28913449BB236
:1016900063826EB901262378012B02D1054B082203
:1016A0009A602EB9BDE87040FFF776BB2B46DDE7A8
:1016B000012070BD00E100E010B44378023B0A460F
:1016C000032B15D8DFE803F0022C1B23164B1978E7
:1016D000CC0725D519786FF300011970197800240B
:1016E0006FF3410119705C70197864F3820119700D
:1016F0000E4B5DF8044B01461868FFF791BF0A4B8B
:101700001978C9070CD5197841F00401EFE70649AB
:101710000B78DB0704D50B786FF382030B70E7E7D8
:101720005DF8044B704700BF88120020C0120020F3
:101730001FB50023CDE9013301218DF8050001A873
:1017400003938DF80430FFF7B7FF05B05DF804FB95
:101750001FB50024CDE901448DF8040007208DF861
:1017600005008DF8081001A8194603928DF809406C
:10177000FFF7A2FF04B010BD2DE9F74FAC4AD38AA2
:101780005BBA9BB28346904633B9AA4B1B68DB0712
:1017900040F14A8100BE47E19168B1FBF3F39AB290
:1017A000002AF2D0D8F83820D8F81150A248A1EB7E
:1017B0000209B9F5805F9BB228BF4FF480592DBA5A
:1017C000B2FBF3F700213D4403FB17274A46FEF71F
:1017D0001DFE002F00F01E81964B1B68DB0700D515
:1017E00000BED8F80830D8F8382098F82E109B1A88
:1017F000C8F82830012388F82C3042F20503A8F8F5
:101800003C305846002388F83E3003B0BDE8F04F26
:10181000FFF7D4BA4FF4007200212046FEF7F6FD20
:1018200055BB864B224603F1380C1868596816469A
:1018300003C6083363453246F7D118689B88B380E6
:101840005523306084F8FE31AA2384F8FF31013536
:1018500004F5007407F50077B945DBD8002FC0DB2D
:1018600098F82E1040F0D8803B463A46584603B0D0
:10187000BDE8F04FFFF76CBFB5F5017F2FD86B1EA9
:10188000B3F5817F24BF6FF4817C05EB0C03B3B10A
:101890006B4A12681B02120A0332214603F5807656
:1018A0004FF6FF7C032B03F1010013D9934211D2B1
:1018B0000880B042034601F10201F3D1C7E7F822E4
:1018C0002270FF20224604F1090102F8010F8A422A
:1018D000FBD1DDE7934208BFA1F800C0E9E7B5F509
:1018E000027F54D840F205239D42B0D1554923468A
:1018F00004F10B000A78002A43D0013103F8012BD0
:101900008342F7D12823E3724D4B1B681B0A5B020D
:1019100000934D4B04F120064FF0020A45F2973236
:1019200031469C4606F10B0E9CF8000058B30CF1B2
:10193000010C01F8010B7145F6D14FF000004FF09A
:101940006401B082D868717346F27931F1813282D4
:101950007282F1823283A6F81AA0B0B10193FEF729
:10196000AFFD019B45F297320AF1010A1FFA8AFA8C
:10197000BAF1050FF06103F1100306F12006CFD193
:1019800065E72022BAE72020D3E70098ECE72F4B49
:101990009D423FF65CAF6FF40276AB19012B14D871
:1019A0002B4A2B01995800910846FEF789FD0099B2
:1019B00000283FF44CAFB0F5007F024628BF4FF43B
:1019C00000722046FEF720FC41E7224B03EB052185
:1019D0001B4B1B688B427FF63AAF1F4A226002F115
:1019E000144202F52C1202F602321B0A62601B4AF4
:1019F000C4F8FC21A361A5F20B224FF400536261ED
:101A0000A3604FF48072164BE1602261E36104F140
:101A10002000D7E7084C1FE7074ABBB25846FFF73C
:101A2000E9F900283FF4B1AE03B0BDE8F08F00BF84
:101A3000F8110020F0ED00E0F8010020BD380008AA
:101A400060010020E83800083C3A00080801010065
:101A5000B819000800F5FE075546320A306FB10A82
:101A6000575A7557930813B501EB830304469942FF
:101A70000BD112F0030206D0002301A80193FEF758
:101A8000C3FB019B236002B010BD51F8040B206022
:101A9000EDE713B5930800EB8303984209D112F0E8
:101AA000030204D00B68019301A9FEF7ADFB02B05D
:101AB00010BD0C6840F8044BEFE7000008B5074B79
:101AC000022201201A60FFF74BF9054B054A33F853
:101AD000031F11809B78937008BD00BFF4010020A4
:101AE00050380008F001002010B5194C227A32B1AC
:101AF000184B04221A60BDE81040FFF729B923688B
:101B00002BB3154B197861B11A70124B03221920AF
:101B10001A60FFF725F9114A114B11889278198044
:101B20009A70D4E900329A4211D30A4B04221A6007
:101B3000FFF70EF9BFF34F8F0A490B4BCA6802F447
:101B4000E0621343CB60BFF34F8F00BFFDE710BDD2
:101B500084130020F40100201C00002056380008E7
:101B6000F001002000ED00E00400FA052DE9F04F3F
:101B7000B54C1F4694F83030012B97B0064600F064
:101B80007D81032B00F0AD823BBB94F82F308B425C
:101B900001D001200BE02AB91F2F03D12068AB4BE5
:101BA000984209D0AA4B1B68D80703D4002017B06D
:101BB000BDE8F08F00BEF9E7A64B23626368A0681A
:101BC000C4E90932012384F83030E37B282BC4E9CF
:101BD0000D0224D13046FFF7CFFD94F83030022BB0
:101BE000D7D194F82E109C4B94F82F0001F07F026F
:101BF00003EB420202EBD1122032527995070AD44C
:101C000000F07F0203EB420303EBD01320335B7938
:101C10009A0740F18C8200231A4601465DE22A2B86
:101C200003D13046FFF712F9D7E750B1227BD20932
:101C300007D18A4A83B23046FFF7DCF80028CCD1BE
:101C4000F7E0252B08D8192B1BD8032B00F0C780F1
:101C5000122B5ED0002B3CD094F83C20002A40F0A0
:101C600074821E2B1CBF42F20503A38780B216BFED
:101C70004FF6FF73134684F83E20834228BF034685
:101C800027E0A3F11A0200210B2AE5D801A555F897
:101C900022F000BFAB1D000847210008591C0008B6
:101CA000591C0008591C0008591C0008591C000840
:101CB000591C0008591C0008E91C0008591C0008A0
:101CC000C51C0008654B66494FF40032C3E9001299
:101CD00008230020636384F82C00002B40F0A680CA
:101CE000022384F8303078E708220D918DF83720F0
:101CF0005C4A0E9202220DABADF83C10ADF83E20CE
:101D00008DF83C2093E80700544D0C2385E807002C
:101D1000DFE7554B0022CDE90D324FF02035102280
:101D2000202111A8CDE90F55FEF770FB4F4A1595FC
:101D300010685168127A06AB03C31A704C4B09AA9B
:101D400003F1080C174618685968154603C508338F
:101D500063452A46F7D1998818689B792860A9803D
:101D6000AB7106A8434B0593FEF7AAFB06A90246F2
:101D70000FA8FEF749FA3846FEF7A2FB394602469D
:101D800011A8FEF741FA05A8FEF79AFB0DAD024631
:101D900005A915A8FEF738FA0FCD304F0FC70FCDA4
:101DA0000FC72B683B60242393E70D9B607B03F4F4
:101DB000000343F003030D932F4B73B1AFF3008087
:101DC0009DF8363080F0010060F3C7138DF836308F
:101DD000224B0D9A1A6004237BE70120F0E71222C0
:101DE00000210DA8FEF712FB94F83C0094F83D107A
:101DF00094F83E208DF84010F0238DF834304FF0E9
:101E0000000360F303038DF836300A238DF83B306E
:101E10008DF841200DAD0FCD104F0FC72B683B80C3
:101E20000023A38784F83E30122352E7A26893422E
:101E300006D9074B1B68DB077FF5B8AE00BEB6E6D8
:101E4000064A94F82E10F6E6F81100205553424346
:101E5000F0ED00E05553425388120020F8010020B5
:101E60000001010800010109008002025938000840
:101E700062380008312E300000000000257BED099B
:101E80000FD1E37B2A2B00F013811E2B1CBF42F2E3
:101E90000503A3874FF0000318BF84F83E5084F871
:101EA0002C30A36B1F44636BA7639F42BFF418AF32
:101EB000E37B282B3FF48EAE2A2B3FF4B2AEAB4B24
:101EC0001B68DF077FF589AE00BE86E6DAF80010F2
:101ED000A74A91426FD1DAF80420A64B9A426AD100
:101EE000DAF8FC11A44A914265D1DAF8082022F40C
:101EF000FF5222F01E029204920CB2F5005F5AD1FA
:101F000003F13943DAF81C2003F5C01303F510631D
:101F10009A4250D1DAF80C300093984ADAF810302F
:101F200002931169002904DA9549964B5160536078
:101F300012699548DFF870C200214FF0006250F836
:101F4000048B009B91464244934211D28F484FF03C
:101F5000010C425C00F801C079B19AB91046804585
:101F600010D950F80920013240F022810430F6E700
:101F70000131182901D06245E1D97C4A1268D307A2
:101F800000D500BE0AF11C03DFF82092DFF8ECB1A7
:101F900001934FF00008029B434503DD99F81810A8
:101FA000012921D175490A6942F000420A61DAF833
:101FB0001810002953D10AF5007A05F50075AF42D3
:101FC00084D8002D77DAA368A26B9B1AA362012341
:101FD00084F82C30022384F8303042F20503A387C2
:101FE000002384F83E30F8E5019B012053F8041FDC
:101FF00089F818004CF2503003910193FEF780FDF0
:10200000F8B9DBF8100020F44070CBF81000DBF8D2
:10201000100040F40070CBF81000DBF8100040F026
:102020000100CBF81000009B039948F803104CF214
:102030005030FEF765FDDBF8101021F00101CBF800
:102040001010002189F818100028ABD14FF0FF3094
:10205000FEF756FD0028A5D108F104089BE74C4A7D
:1020600010688142964607D044F2630C614500D85F
:1020700008B14FF0FF311160DAF8140044F2630147
:10208000884298D800F007010EEBD0004FF0010C09
:1020900090F809E00CFA01FC1CEA0E0F5FFA8CF1D3
:1020A00089D141EA0E01417251680131516082E7E4
:1020B000DFF8E0A083E7AF427FF7F3AE7A1B4DB1C4
:1020C000A36B00922B44A363324B59191846FEF7B9
:1020D00035F9009A94F82F1000233046FFF738FBAB
:1020E00057E594F82E308B427FF477AD0D2F7FF4B7
:1020F00074ADE37B282B09D02A2B14D0264B53B187
:10210000607B04F10F01AFF3008004E0234B13B1B7
:10211000607BAFF30080002384F83030204A94F8CD
:102120002F101F2387E5607BFFF7DEFCF3E7032317
:1021300084F830301B4A0D233046FEF75BFE002842
:102140007FF427AD75E60023C3E500236363012315
:1021500084F82C30022384F8303000283FF43DAD61
:1021600094F82E103046FEF729FE36E5F0ED00E03B
:102170005546320A57515D9E306FB10A003C02400D
:1021800023016745AB89EFCD6C3A0008B21B0020F4
:1021900084130020F801002000000000000000006F
:1021A000F811002018120020FFFF0308CC1B0020AC
:1021B000124A106920F440701061106940F40070F8
:1021C0001061106920F0F8001061106940EAC10147
:1021D00041F002011161116941F4803111614FF048
:1021E000FF30FEF78DFC002151F8092001327FF409
:1021F000C4AE04318845F7D8C4E600BF003C0240B5
:10220000054BD3F8882042F47002C3F888204FF0C1
:1022100000629A60704700BF00ED00E07047000068
:102220002DE9F04F4FF0A0458BB06C69E20441D529
:10223000884E4FF480536B61802200213046FEF7B8
:10224000E5F8854B854900221A70854A136843F0EA
:10225000006313600B6843F000630B600B6A43F08C
:1022600000630B620B6C43F000630B647D4BD96918
:1022700041F00111D961596941F0090159611969A8
:1022800041F00901196137236B62774B10211980E6
:10229000764B7749AB620B6823F003030B60402356
:1022A00073837381136943F0C0431361AB6943F4D3
:1022B0004023AB61A30424D54FF0A0434FF4005258
:1022C0005A61684A926812F0060FDA6808BF022164
:1022D00022F4705218BF0021DA60002950D0DA6869
:1022E00042F41052DA600023CDE9073309938DF8E8
:1022F00020104FF48073012107A8ADF81C30FFF7C0
:10230000DBF9270507D54FF0A0434FF400625A616F
:102310000420FFF70DFA002C07DA4FF0A0434FF02E
:1023200000425A610520FFF703FA66070AD54FF00D
:10233000A0431D465E6816F0040F02D00220FFF78E
:10234000F7F96E60E50640F111814FF0A042DFF829
:1023500004B1936923F0100393614FF0A0431E6A08
:10236000C6F34343013B06F00F07052B00F2E6815D
:10237000DFE813F0D7004200D700D301E401DD010C
:102380003C4B3D4A1B68934226D23C4A934225D897
:102390003B4A934224D23B4A934223D8A2F5DB1214
:1023A000A2F5BA5293421FD8A2F5B712A2F55872FD
:1023B00093421BD8344A93421AD2344A934219D2D8
:1023C000334A93422CBF0E230F234FF0A040C26824
:1023D00042EA8323C36086E70623F6E70723F4E790
:1023E0000823F2E70923F0E70A23EEE70B23ECE7E3
:1023F0000C23EAE70D23E8E70BEB4713C6F30A16B5
:10240000D3F804907901B9F1000F00F05F81002E3C
:1024100072D0B9F80E3099F80810B9F81000B9F870
:1024200004E0B9F806209BB2019380B2A1BB8342BD
:1024300038BFB9F80A10A3EB0004A4B23CBF641A79
:10244000A4B2AEEB0404A4B2B44228BF344611498E
:102450002EE000BFF01B002038120020200B00509F
:10246000000B005000080050FC000020300110005C
:1024700000090050000000200048E801DF9DA30192
:1024800000366E013FA44C01807306010024F40065
:10249000C0E1E400001000507645C0F0C680A6EB15
:1024A0000E01514301F1A04101F5805101907446A4
:1024B000DDF804C0F44580F0BA80AEEB0C08D9F822
:1024C00000001FFA88F8444502FB0C0000F2B480BB
:1024D00014FB02F292B2FFF7DCFA019B1C44A4B297
:1024E000A34203D8B9F80C30A34203D2B9F80A309A
:1024F0001C44A4B2A9F80E400BEB47125389B34217
:102500000FD97B0103F1A043D3F8101B13895B1A89
:102510009BB213812FB9B44A118817805B1AABF8AC
:1025200008304FF0A040446914F010057FF415AF57
:10253000AE490B78A3B1AE4A5389568DB34238BF2A
:102540003346B2F84A60B2F86A20B34238BF334625
:10255000934238BF13469B085B00173343620D70EC
:102560004FF0A042936943F010039361250300F1FB
:10257000EC80600356D5DFF878B24FF000099D4B30
:1025800001229B6902FA09F018425FFA89F142D0F0
:102590004FEA491808F1A04808F51068D8F8083043
:1025A000DE070ED5C8F80820B9F1000F40F01381FE
:1025B0008D4B5B88002B00F00E8111464846FEF7DC
:1025C000F9F9D8F808301D0625D58A4B01225B6B36
:1025D00002FA09F21A4202921DD0D8F810304FEADE
:1025E000093AC3F3C9430AF1A04A03930AF5805A92
:1025F00000230193BDF80430039A9A4200F202814D
:10260000D8F81030C3F312032BB97A4A0299536BEE
:1026100023EA0103536309F10109B9F1040F0BF136
:10262000200BACD10BB0BDE8F08F34460FE7ACEB1C
:102630000E0C1FFA8CFC3DE718FB02F81FFA88F815
:10264000A4EB0E05654428F0030A15FB02F21FFAFD
:102650008AFA95B25246CDE90201FFF71AFA18F04C
:10266000030803992FD0C8F1040C1FFA8CFCAC4569
:1026700002980A68079228BFAC46A5EB0C050AF140
:10268000FF3A0DF11C0EADB2504442467346013A7A
:10269000D2B2FF2A0DD1D9F800009844421E08EBAF
:1026A0000C0EC6450AD16044002D3FF416AF2A46F1
:1026B00011E71EF801AB00F801AFE8E718F801AB2D
:1026C00002F801AFEDE7D9F80000EDE75BF8013063
:1026D000494CB00803EB8000834214D116F003008C
:1026E000F4B20AD0444A12681A70A40744BF140A0C
:1026F0005C70032804BF120C9A705BF801303344FD
:102700004BF80130F8E622681A70150A5D70150C56
:10271000120E9D70DA700433DEE77F0107F1A047E7
:10272000D7F8103B43F0C043C7F8103BF9E6324AF4
:10273000324B1168196012685A60F2E6304B1B6820
:10274000DE077FF5EEAE00BEEBE6DFF8A880DFF82F
:10275000A090DFF894A00025D8F8181005F1100318
:10276000012202FA03F30B425FFA85FB27D06F01C7
:1027700007F1A04606F53066B368190712D508239D
:10278000B3600023ADF81E304FF4C063ADF81C30C9
:102790001A4B93E803000AAB03E90300114607A8AC
:1027A000FEF78AFFB368DB0709D50122B26055B98D
:1027B000BAF800303BB129462846FEF7FBF8013550
:1027C000042DC9D1D5E64F4401233A89594600204A
:1027D000FEF7BEFFF3E7BBF81820012341F08001AC
:1027E0000020FEF7B5FFECE6AE1B002038120020FB
:1027F000F01B002000080050001000503C12002088
:10280000F0ED00E0D8F81030BBF81A205B499BB21D
:102810009A4228BF1A46D8F8183001EA83039A4230
:102820003FF6EEAEDBF81460002E00F08680F189F2
:10283000338A89B29BB2994238BF7089A1EB0307F2
:10284000BFB238BF3F1AB08838BFBFB2B8420ED24D
:10285000814204D3B4890B1A9BB29C4203D2738980
:102860000344C91A8BB23382338A07469BB297B1AD
:10287000974228BF174698421ED9C51AF288316878
:10288000ADB2AF4202FB031119D817FB02F292B2AC
:102890005046FFF7E7F8338A17FA83F79AB2BFB2C8
:1028A000BA4202D8B389BB4202D273891F44BFB275
:1028B0003782019B01339CE61B1A9BB2DBE73C1A73
:1028C0001C4415FB02F5ADB214FB02F294B225F0E4
:1028D000030292B25046CDE90412FFF7C3F815F097
:1028E000030528D0C5F104039BB2DDE90412A3421D
:1028F00028BF23461144E41A00220792A4B207AA73
:10290000481981420DD13168013D07AA15440B4495
:1029100099420BD1079BCAF80030002CBBD022464D
:10292000B6E711F801CB02F801CBEAE711F8012B69
:1029300005F8012FECE73168EFE7DBF8101093089A
:1029400001EB8303994214D112F00300D4B20AD0F0
:10295000A4070B7848BF0B88032804BF897843EA93
:102960000143CAF80030DBF810301A44CBF81020CD
:102970009FE751F8040BCAF80000E3E7FCFF0300EF
:10298000134A136801331360124B1B68022B0DD8D6
:10299000E3B113681268DBB2D20544BFDB43DBB29C
:1029A0000D4A33B14FF4005393617047032B03D0AA
:1029B00070474FF00053F7E7136813F0010F064B11
:1029C00014BF4FF400524FF000529A61704700BF9D
:1029D00044120020F4010020000802402DE9804844
:1029E00099B0234B00210A911A6C42F080521A646C
:1029F0001A6C02F080520A920A9A09911D490A68DB
:102A000022F4404242F400420A600A6802F4404262
:102A10000992099A9A6802F00C02042A07D09A686F
:102A200002F00C02082A2DD15A6857022AD5104B01
:102A30001B680F4B9A6802F00C02082A00F03E81D6
:102A40000D4900220A600D4A14681868850100F1DA
:102A50002F810B48586001230B60106804490B68F4
:102A60009C011DD413681B1A022BF8D918E000BF73
:102A7000003802400070004060004742EC1B00201C
:102A8000195441071A68934942F480321A60924BF4
:102A900018680A689603CCD41A68121A642AF8D9FE
:102AA0008E4B1A6812F00E0F00F00A81894B9A685B
:102AB00042F4E0529A609A6842F460429A609A68DE
:102AC00022F0F0029A601A68920100F12B81814A8B
:102AD0008348936803F00C03042B00F0B381082BA8
:102AE00000F0B2817F4B7B4903608B687E4A7F4C4C
:102AF000C3F303130026D25C0368D3400360FEF7E0
:102B000027F908960B6B7A4843F001030B630B6BB4
:102B100003F001030893089B07960B6B43F0020335
:102B20000B630B6B03F002030793079B06960B6B7B
:102B300043F004030B630B6B03F004030693069B43
:102B400005960B6B43F008030B630B6B03F0080354
:102B50000593059B4FF4005C0123CDE913C3159346
:102B600013A902231693FEF729F84FF0005383614F
:102B70002268604B9A4205460ED119202660FEF766
:102B8000EFF85D4A5D4B118892789A7019805C4B22
:102B900004221A60FEF7DCF85A4E5B4B32689A4208
:102BA00040F26E813268594B9A4200F26981584B6B
:102BB000216899424FF0000340F05D815548236041
:102BC00000214FF0010C0F274FF0020E4FF00308C9
:102BD0000CFA01F333F4005248D121F0030202F160
:102BE000804202F59C3201F00304A400D2F808A050
:102BF00007FA04F90AEA090A0EFA04F4A2456FEA90
:102C000003030FD104681C40046044681C40446006
:102C100084681C408460C4681C40C460946824EAD2
:102C2000090494602A684C0008FA04F422EA0402B9
:102C30002A60CA08920002F1804202F5023201F0D5
:102C40000709D2F820A04FEA890907FA09F92AEA08
:102C50000909C2F82090EA6822EA0402EA606A6878
:102C600013406B60AB6823EA0404AC6001311029A7
:102C7000AED1184B1A6B22F001021A631A6B22F0C4
:102C800002021A631A6B22F004021A631A6B22F012
:102C900008021A63204B00221A605A609A601F4A89
:102CA0001F4B93601B6883F3088833681847FEE75F
:102CB0001068001B02287FF6C8AEF1E65B68EFE6FD
:102CC00002221A701B6803F00F0393423FF4EEAE2A
:102CD000FDE600BF00380240EC1B0020003C024033
:102CE000000000200024F400AD380008FCFF0020A4
:102CF00000080240B40AE8F556380008F001002048
:102D0000F401002004000108FFFF0008000005088E
:102D1000EF6926F0003C014010E000E000ED00E02B
:102D2000000001089A6822F0030242F002029A6051
:102D3000AC4A1468194641F28835986800F00C00D6
:102D4000082854D1A84B1A6802F00F02022A53D85F
:102D50008B6823F4E05343F480538B608B6823F437
:102D600060438B608B6803F00C03042B68D0082B46
:102D70004BD09E489E4B9F4A9B68C3F30313D35C82
:102D8000D8409D4B18604FF47A73B0FBF3F00138D4
:102D9000B0F1807FBFF49BAE984A994C2168506097
:102DA0009848F02380F82330072500230F299360EB
:102DB00015603FF68CAEC268C2F30222A81A04283E
:102DC00002F1040528BF0420062D98BF1A464FF0D3
:102DD000FF3303FA00F388BF033A21EA0303934069
:102DE0001B01884ADBB282F8233021606FE610684D
:102DF000001BA842A1D96AE602221A701B6803F0E0
:102E00000F0393427FF463AEA2E74A684B684968B8
:102E100013F4800314BF7C487448C1F3881118BFB1
:102E2000002302F03F02A1FB0001FDF7B7FB704B4E
:102E30005B68C3F3014301335B00B0FBF3F099E738
:102E4000714897E7704B4EE65468516852686302C8
:102E5000C2F388124CBF6C4B644B01F03F01B3FBD3
:102E6000F1F35343624A5268C2F301420132520005
:102E7000B3FBF2F337E6654A914240F0EB80236002
:102E80004FF4C053002462481393032602230A25FB
:102E900013A9CDE91434169617954FF48067FDF702
:102EA0008DFE1223CDE9137359481795012313A9F9
:102EB000CDE91536FDF782FE4D4B5A6B42F080028C
:102EC0005A630B945A6C42F480425A645B6C4FF024
:102ED000A04203F480430B930B9B936B43F40013CA
:102EE00093634C4B4FF480221A604B4B02931C7837
:102EF000002C64D1372221464848FDF787FA484A1A
:102F0000138954825B009BB2591E5B42D381454BAF
:102F100094821A60444B118223B14448AFF300807D
:102F2000434B1860414D00242046FEF7C5F9036865
:102F300098472B780134E4B20133A342F4DA4FF01E
:102F4000A043DA6842F04002DA601A69002AFCDA2B
:102F50001A6942F001021A614FF0A0431A6912F097
:102F60000102FBD133490A605A6959690A435A611F
:102F70009A6942F006029A612F4A116841F00401F1
:102F80001160116821F003011160116841F0030123
:102F90001160996B41F48031996398692749014325
:102FA0009961996841F001019960536823F0020327
:102FB0005360234B08229A60029A01231370214B1D
:102FC000214F022201201A60FDF7CAFE1F4A204B42
:102FD0001188927819809A70029B1B780093002BBD
:102FE0004CD1FEE7EC1B0020003C02400024F40022
:102FF00000380240AD3800080000002010E000E07A
:10300000F800002000ED00E040787D01EF6916F047
:103010000000024060010020BF1200208812002042
:1030200004000020C0120020000000000401002065
:1030300000010020000E00500008005010380080F1
:1030400000E100E0F4010020F0ED00E0533800085A
:10305000F0010020A84F226001203B60FDF780FEB8
:103060004FF40053AB613B68B3F5FA7FFBD3FDF738
:103070006FFE4FF00053AB6100239FE59F4DA04BC7
:103080001C682378012B07D19E4B0822C3F88820A7
:10309000BFF34F8FBFF36F8F628AA18A92B289B25A
:1030A0008A4238BFE089A2EB01039BB238BF1B1AEA
:1030B000208938BF9BB298420CD2824204D3268A20
:1030C000131A9BB29E4203D2E3890344D21A93B2ED
:1030D000A38203461BB91A460BE0091A89B288423B
:1030E000FBD9628963680CA802FB0131FDF78CF8FB
:1030F000009AA38A99B212FA83F39BB2994202D83A
:10310000218A994202D2E1890B449BB2A38223789F
:10311000012B02D17B4B08219960002A3FF45CAF60
:103120009DF83130013B072B00F2FF82DFE813F0FE
:10313000080011007A035A0365031800DA027D03C0
:103140009DF83000FEF708F96F4B9DF834209A7017
:1031500095E79DF83000FEF7FFF8FEF7AFFC8EE72D
:10316000694C9DF8348023789DF8306043F001036A
:10317000237094F825306FF3000384F8253094F819
:1031800025306FF3820384F8253094F826306FF3EE
:10319000000384F8263094F8263008F0600B6FF3B3
:1031A00082030021BBF1600F84F82630296105D12C
:1031B0003B68D90740F1F18100BEEEE1BBF1400F61
:1031C0000CD1524B002B00F0E8810DAA30462B6148
:1031D000AFF3008000287FF452AFDEE108F01F0853
:1031E000B8F1010F00F0BA81B8F1020F00F0DC81F4
:1031F000B8F1000FDCD1BBF1200F12D19DF83830AF
:103200000F2B00F2CA811C44E078FEF755F8002825
:1032100000F0C3810DAA00F10C013046FDF7C6FD98
:10322000D8E7BBF1000FC3D19DF83530092BBFD8CB
:1032300001A252F823F000BF4735000837350008D7
:10324000B131000825350008B131000861320008AD
:10325000FF330008B131000893320008A73200089C
:10326000DDE90D01002285E80300C5E902222849B5
:103270009DF8363008681B0103F4FE6303430B60BE
:1032800080201146FDF70EFC237843F002032370E3
:10329000F5E663788DF84C30012313AA0DA930466A
:1032A000FEF7B8F8EBE69DF836300193637803F04B
:1032B000FF08002B7FD1019B002B7CD02378DFF807
:1032C00054B023F0300343F0100323709BF8013017
:1032D000042B21D03B68DC077FF56AAF00BE67E7AF
:1032E0009BF801300B2B05BF9BF80030D8464FF000
:1032F00000089B44EAE700BF4412002008010020B8
:10330000C012002000E100E0881200200000000050
:103310000008005039390008BA4BA3EB0B0292B2F7
:103320004FF0000AB84B1B785FFA8AF901334B451E
:10333000D0DB48460392FDF7BFFF039A83685946E6
:10334000304698470AF1010A039A0028EAD0082873
:10335000C0D98242BED3AD4A9BF802301344DA781A
:10336000FF2AB7D183F80390B8F1000F2AD15A464B
:10337000002392F801C0BCF1050F0AD192F802E0D7
:10338000A2490EF07F0C01EB4C0C0CEBDE1C8CF810
:10339000139092F800C063449BB298426244E8D80C
:1033A000994B1B7801339945834493DC954B9B459E
:1033B00096D3FDF7A1FF019B63700DA93046FDF781
:1033C000ADFD5CE698F802209BF802309A4281D16C
:1033D00098F804209BF805309A427FF47BAF0123D4
:1033E00008E08A4A9BF802C01A446244013382F81A
:1033F0000390DBB298F803209A42F2D8B7E7BDF801
:1034000036301A0A013A0E2A00F2C780DFE802F0CD
:1034100008181BC5C57FC5C5C5C5C5C5C5C50F0031
:103420007B4A12230DA93046FDF7F4FFD2E6794B13
:10343000002B00F0B280AFF3008043880246F1E732
:10344000754A4023EEE713F0FF0319D0032B23D076
:10345000062B00F2A280714A52F823402046FDF765
:103460002FF8C3B21F2B28BF1F236D4A2046E11837
:10347000814202F1020208D010F8014B1480F7E7F4
:10348000684A674B12885A8001235B00644A023302
:1034900043F440711180C5E7634A614C07CA0FAB22
:1034A00083E807004FF00008604A02F1100A0DF1AE
:1034B0004C0ED14610685168F446ACE8030008325F
:1034C0005245E646F6D113F801CB18A90CF00F02CD
:1034D0000A440DF14C0A12F8142CA280534A1068C9
:1034E0005168D646AEE8030008324A45F246F6D1A6
:1034F00018AA02EB1C1C08F101081CF8142C6280AD
:10350000B8F10C0F04F10404CED11823BDE7484BE9
:10351000002B42D0AFF30080024600283FF448AEB3
:1035200003787FE7BDF83630012B36D1237843F09E
:103530000803237041E7BDF83630012B2DD12378E5
:103540006FF3C303F5E72378C3F340129B0803F03E
:1035500002031343ADF84C3002239EE69DF8383049
:103560000F2B1AD81C44E078FDF7A6FEA8B100F195
:103570000C010DAA3046FDF719FC00287FF47FAD41
:103580009DF8343013F0600307D19DF835200A2AE6
:103590003FF480AE0B2A3FF410AF0020FDF7A4F9F2
:1035A0008020FDF7A1F96AE59DF8381001F07F024F
:1035B000082A3FF6FDAD04EB420A0AEBD11ACB090B
:1035C00003939AF8130053000193FDF775FE039BD4
:1035D0008146BBF1000F05D00028DED00DAA00F116
:1035E0000C011AE69DF8350000F0FD0CBCF1010F4E
:1035F00020D000287FF4DCAD9AF82530C3F34003D7
:10360000A8E700BF703900080401002088120020DC
:10361000703900080000000030390008CC3A00087A
:103620001C010020FB380008107AFF1F71380008C9
:1036300000000000BDF836C0BCF1000F28D1012801
:103640004CD1520102F1A042A3B3D2F8001921F4E7
:103650000011C2F80019D2F80019C1F381410239F2
:10366000012905D8D2F8001941F08051C2F800199B
:10367000019A71490A44134493F825206FF34102DB
:1036800083F8252093F825206FF3000283F8252086
:10369000B9F1000F3FF4F3AC0DAA09F10C0130466B
:1036A000FDF784FB00232B6194F82630D8073FF503
:1036B000E6AC82E6D2F8001B21F40011C2F8001B30
:1036C000D2F8001BC1F38141023901299EBFD2F813
:1036D000001B41F08051C2F8001BC9E73046FDF7DE
:1036E0006DFBD5E79DF83410534B01F07F0403EBDD
:1036F000440303EBD113C80993F825606FF3000668
:1037000083F8256093F825606FF3820683F82560BF
:10371000002C55D12B789DF83060DDF83880B0EB67
:10372000D31F17D0B8F1000F05D03B68DB077FF53A
:10373000A6AC00BEA3E4414B1BB129463046AFF313
:1037400000802B69002B3FF49AAC2A4602213046B8
:10375000984794E495F90030002B07DBA86800280F
:103760003FF48DAC36494246FCF74EFDAA68EB8922
:1037700042444344AA60EA889BB29A42EB8102D059
:10378000B8F13F0F18D82B697BB995F90030002BA1
:103790004FF000031A46B4BF214680213046FDF7A2
:1037A00029FB00287FF46BACBFE72A460121304695
:1037B00098470028E9D1F1E63046FDF7FDFDF0E736
:1037C000D87CFDF779FD28B93B68DA077FF504ACB2
:1037D00000BE01E404690E9B9DF835209DF8300081
:1037E000A0474CE4174B002B3FF449AC124B187820
:1037F000C0F3C000AFF3008041E4134B002B3FF453
:103800003EACAFF300803AE4FDF756FD436913B1D7
:103810009DF83000984701362378F0B20133834297
:10382000F2DA2CE4094C0026F6E70D9B002B3FF45E
:1038300026AC0E98984722E4881200200000000071
:1038400048120020000000000000000004010020D9
:1038500000FF00FF0000CC6600416461667275697C
:10386000740055463220426F6F746C6F61646572EC
:1038700000303132333435363738394142434445EC
:10388000460053544D33320053544D333246343096
:103890003143785578005546320048463220484931
:1038A00044004846322057656255534200000000EC
:1038B00000000000000102030406070809EB3C9029
:1038C00055463220554632200002010100024000D8
:1038D0000000F802010100010000000000090101E0
:1038E0000080002942004200426C61636B50696CA9
:1038F0006C000046415431362020200904000000AD
:1039000031130008211300088111000885140008F4
:103910006D1B00080000000051130008411300084F
:1039200001120008E5140008BD0E000800000000A8
:1039300009024000020100A032090400000208064A
:103940005004070501024000000705810240000005
:1039500009040100020300000509211101000122F0
:1039600020000705020340000A0705820340000A01
:1039700012010002000000409A235D0000010102D4
:1039800003010600FF0901A1010902150025FF75C9
:1039900008954081020903150025FF75089540919F
:1039A00002C03C21646F63747970652068746D6C2B
:1039B0003E0A3C68746D6C3E3C626F64793E3C73B9
:1039C00063726970743E0A6C6F636174696F6E2E06
:1039D0007265706C616365282268747470733A2F25
:1039E0002F73746D33322D626173652E6F72672F82
:1039F000626F617264732F53544D333246343131E8
:103A0000434555362D57654163742D426C61636B98
:103A10002D50696C6C2D56322E302E68746D6C22D0
:103A2000293B0A3C2F7363726970743E3C2F626FAE
:103A300064793E3C2F68746D6C3E0A00494E464FD7
:103A40005F554632545854001D000020494E4445ED
:103A50005820202048544D00A239000843555252A6
:103A6000454E542055463200000000000040000042
:103A70000040000000400000004000000000010085
:103A8000000002000000020000000200000002002E
:103A900000000200000002000000020000400000E0
:103AA0000040000000400000004000000000010055
:103AB00000000200000002000000020000000200FE
:103AC000000002000000020000000200FB380008B5
:103AD00082380008883800089C1B002096380008AF
:083AE0009A380008A238000822
:083AE800E4CAFF7F01000000A9
:103AF0000024F40001000000C412002010000C009B
:103B00000000E0FF1F000000000000000154696E8B
:103B10007955463220426F6F746C6F616465722014
:103B2000302E362E322D31302D67303161326235F4
:103B3000612D6469727479202D2073742F636D7305
:103B400069735F6465766963655F663420287632E1
:103B50002E362E342D312D673236313565383629E3
:103B60002073742F73746D3332663478785F6861B4
:103B70006C5F647269766572202876312E372E3933
:103B8000292074696E797573622028302E31302EA9
:103B9000312D3130392D6739623365633639622909
:103BA0000D0A4D6F64656C3A2053544D33322053E7
:103BB000544D333246343031437855780D0A426FD4
:103BC0006172642D49443A20426C61636B50696CA8
:103BD0006C0D0A446174653A2044656320323320D9
:0C3BE000323032310D0A000010000000ED
:040000050800089552
:00000001FF
